:020000020000FC
:1000000000C00FEF0DBF08E00EBF00E00AB90FEF10
:100010000BB903E004B941E052E011E10DE00093B7
:10002000810005E3009388000CE00093890012D062
:10003000489B14D0499B22D014FD2E7F10FD2D7FAC
:1000400015FD216011FD226016FD242712FD2527D4
:1000500025B9EDCFB19BFECFB19A08956F9114FDF4
:1000600004C015FD05C016FD06C011E26F9308958A
:1000700011E46F93089511E16F9308956F9110FD4E
:1000800004C011FD05C012FD06C012E16F93089572
:0C00900014E16F93089511E16F9308953F
:00000001FF
