:020000020000FC
:0200000004C03A
:0200040031C009
:100008003FC00FEF0DBF08E00EBF00E00AB90FEFC9
:100018000BB903E004B941E052E011E10DE00093AF
:1000280081000AE00093690003E00DBB05E300933B
:1000380088000CE00093890078940ED014FD2E7F80
:1000480010FD2D7F15FD21E011FD22E016FD24276E
:1000580012FD252725B9F1CFB19BFECFB19A08959E
:100068006F9114FD04C015FD05C016FD06C011E210
:100078006F93189511E46F93189511E16F93189584
:100088006F9110FD04C011FD05C012FD06C012E1FC
:100098006F93189514E16F93189511E16F93189564
:00000001FF
