:020000020000FC
:0200000004C03A
:0200040031C009
:100008003BC00FEF0DBF08E00EBF00E00AB90FEFCD
:100018000BB903E004B941E052E011E10DE00093AF
:1000280081000AE00093690003E00DBB05E300933B
:1000380088000CE00093890078940ED014FD2E7F80
:1000480010FD2D7F15FD21E011FD22E016FD24276E
:1000580012FD252725B9F1CFB19BEFCFB19A0895AD
:1000680014FD04C015FD04C016FD04C011E2189566
:1000780011E4189511E1189510FD04C011FD04C094
:1000880012FD04C012E1189514E1189511E11895B4
:00000001FF
