:020000020000FC
:1000000000C00FEF0DBF08E00EBF00E00AB90FEF10
:100010000BB903E004B941E052E011E10DE00093B7
:1000200081000AE00093880000E00093890012D06C
:10003000489914D049991ED014FD2E7F10FD2D7FB4
:1000400015FD216011FD226016FD242712FD2527D4
:1000500025B9EDCFB19BEBCFB19A089514FD04C043
:1000600015FD04C016FD04C011E2089511E40895C1
:1000700011E1089510FD04C011FD04C012FD04C07B
:0C00800012E1089514E1089511E10895C3
:00000001FF
