:020000020000FC
:1000000000C00FEF0DBF08E00EBF00E00AB90FEF10
:100010000BB903E004B941E052E011E10DE00093B7
:10002000810005E3009388000CE000938900B19BF8
:10003000FECFB19A489910D049991AD014FD20E00A
:1000400010FD20E015FD21E011FD22E016FD242722
:1000500012FD252725B9EBCF14FD04C015FD04C002
:1000600016FD04C011E2089511E4089511E1089508
:1000700010FD04C011FD04C012FD04C012E108957A
:0800800014E1089511E1089557
:00000001FF
