:020000020000FC
:0200000004C03A
:020004002FC00B
:1000080039C00FEF0DBF08E00EBF00E00AB90FEFCF
:100018000BB903E004B941E052E011E10DE00093AF
:1000280081000AE00093690003E00DBB0AE0009339
:10003800880000E0009389007894B19BFECFB19AC4
:1000480014FD207010FD207015FD21E011FD22E047
:1000580016FD242712FD252725B9EFCF14FD04C06E
:1000680015FD04C016FD04C011E2189511E4189599
:1000780011E1189510FD04C011FD04C012FD04C063
:0C00880012E1189514E1189511E118958B
:00000001FF
