S00A000050332E7372656397
S11300000C9434000C9446000C9446000C94460066
S11300100C9446000C9446000C9446000C94460044
S11300200C9446000C9446000C9446000C94480032
S11300300C9446000C9446000C9446000C94460024
S11300400C9446000C9446000C9446000C94460014
S11300500C9446000C9446000C9446000C94460004
S11300600C9446000C94460011241FBECFEFD8E038
S1130070DEBFCDBF21E0A0E0B1E001C01D92A430FD
S1130080B207E1F70E94AB000C94BF000C9400008F
S11300901F920F920FB60F9211248F939F93AF93D9
S11300A0BF938091000190910101A0910201B09150
S11300B003010196A11DB11D8093000190930101DC
S11300C0A0930201B0930301BF91AF919F918F91CF
S11300D00F900FBE0F901F9018958BE080938100B6
S11300E08AEF90E0909389008093880082E0809367
S11300F06F00789408950F931F930091000110915D
S113010001012091020130910301AB01BC01400FB8
S1130110511F621F731F8091000190910101A091F2
S11301200201B091030184179507A607B70798F356
S11301301F910F910895AB01BC0180910001909132
S11301400101A0910201B091030184179507A6074C
S1130150B70798F308950E946D00209A60EA7FE043
S113016080E090E00E949B00C1E085B18C2785B9B6
S113017068EE73E080E090E00E947B00F6CFF89494
S1050180FFCFAB
S9030000FC
