:100000000C9434000C9451000C9451000C94670033
:100010000C9451000C9451000C9451000C9451001C
:100020000C9451000C9451000C9451000C9451000C
:100030000C9451000C9451000C9451000C945100FC
:100040000C9451000C9451000C9451000C945100EC
:100050000C9451000C9451000C9451000C945100DC
:100060000C9451000C94510011241FBECFEFD8E026
:10007000DEBFCDBF11E0A0E0B1E0E0E9F1E002C0F9
:1000800005900D92AC30B107D9F721E0ACE0B1E0BA
:1000900001C01D92AE30B207E1F70E94A9000C9496
:1000A000C6000C9400008AB18FEF8AB984B184B97C
:1000B00085B1836085B9E8E6F0E080818160808366
:1000C000EBE6F0E0808183608083789408951F924E
:1000D0000F920FB60F9211242F934F935F938F932C
:1000E0009F93909101011092010185B121E0282791
:1000F000422F417050E0892F90E084239523892B73
:10010000C1F080910D018F5F80930D0180910D01F1
:100110008A3039F410920D0180910C018F5F809329
:100120000C0180910C018A3021F410920D01109283
:100130000C018091000181E08093000185B19F91C5
:100140008F915F914F912F910F900FBE0F901F9045
:1001500018950E94530060910C0180910D010E943E
:10016000B200F9CFE82FF0E0EE5FFE4F80818068AB
:100170008BB98FE19EE40197F1F700C00000E62FF4
:10018000F0E0EE5FFE4F80818BB90895F894FFCFC9
:0C0190000101407924301912027800109F
:00000001FF
