:100000000C9434000C9451000C9451000C94670033
:100010000C9451000C9451000C9451000C9451001C
:100020000C9451000C9451000C9451000C9451000C
:100030000C9451000C9451000C9451000C945100FC
:100040000C9451000C9451000C9451000C945100EC
:100050000C9451000C9451000C9451000C945100DC
:100060000C9451000C94510011241FBECFEFD8E026
:10007000DEBFCDBF11E0A0E0B1E0E0E6F1E002C0FC
:1000800005900D92AA30B107D9F721E0AAE0B1E0BE
:1000900001C01D92AC30B207E1F70E948B000C94B6
:1000A000AE000C9400008AB18FEF8AB984B184B994
:1000B00085B1836085B9E8E6F0E080818160808366
:1000C000EBE6F0E0808183608083789408951F924E
:1000D0000F920FB60F9211248F9380910B018F5FB7
:1000E00080930B0180910B018A3039F410920B013F
:1000F00080910A018F5F80930A0180910A018A3002
:1001000021F410920B0110920A018F910F900FBEF3
:100110000F901F9018950E94530060910A018091E2
:100120000B010E949A008FE19EE40197F1F700C055
:100130000000F3CFE82FF0E0E050FF4F80818068AF
:100140008BB98FE19EE40197F1F700C00000E62F24
:10015000F0E0E050FF4F80818BB90895F894FFCF15
:0A016000404F24060B121047000266
:00000001FF
