:100000000C9434000C9451000C9451000C94670033
:100010000C949E000C9451000C9451000C945100CF
:100020000C9451000C9451000C9451000C9451000C
:100030000C9451000C9451000C9451000C945100FC
:100040000C9451000C9451000C9451000C945100EC
:100050000C9451000C9451000C9451000C945100DC
:100060000C9451000C94510011241FBECFEFD8E026
:10007000DEBFCDBF11E0A0E0B1E0EAECF1E002C0EC
:1000800005900D92AA30B107D9F721E0AAE0B1E0BE
:1000900001C01D92AC30B207E1F70E94C6000C947B
:1000A000E3000C9400008AB18FEF8AB984B184B95F
:1000B00085B1836085B9E8E6F0E080818360808364
:1000C000EBE6F0E0808183608083789408951F924E
:1000D0000F920FB60F9211242F938F939F938091BD
:1000E0000B018F5F80930B0180910B018A30B1F47B
:1000F00020910B018DEC289F812D112486958695EA
:100100008695880F982F990F990F890F281B209398
:100110000B0180910A018F5F80930A0180910A018F
:100120008A3021F410920B0110920A019F918F9155
:100130002F910F900FBE0F901F9018951F920F9246
:100140000FB60F9211248F9380910B01811113C070
:1001500080910A01811106C089E080930B01809390
:100160000A010EC080910A01815080930A0189E042
:1001700080930B0105C080910B01815080930B018E
:100180008F910F900FBE0F901F9018950E945300F3
:1001900060910A0180910B010E94CF00F9CFE82FF6
:1001A000F0E0E050FF4F80818BB9E62FF0E0E050A7
:1001B000FF4F808180688BB98FE59AEE0197F1F748
:0A01C00000C000000895F894FFCF7E
:0A01CA004079243019120278001069
:00000001FF
