S00A000050342E7372656396
S11300000C9434000C9451000C9451000C94650031
S11300100C9451000C9451000C9451000C94510018
S11300200C9451000C9451000C9451000C94510008
S11300300C9451000C9451000C9451000C945100F8
S11300400C9451000C9451000C9451000C945100E8
S11300500C9451000C9451000C9451000C945100D8
S11300600C9451000C94510011241FBECFEFD8E022
S1130070DEBFCDBF11E0A0E0B1E0ECE9F1E002C0E9
S113008005900D92AA30B107D9F721E0AAE0B1E0BA
S113009001C01D92AC30B207E1F70E94A9000C9494
S11300A0CC000C9400008FEF8AB914B885B183603A
S11300B085B9E8E6F0E0808181608083EBE6F0E0DA
S11300C0808183608083789408951F920F920FB685
S11300D00F9211248F93189918C080910B018F5F90
S11300E080930B0180910B018A3039F410920B013B
S11300F080910A018F5F80930A0180910A018A30FE
S113010021F410920B0110920A0119991CC08091DC
S11301100B01811113C080910A01811106C089E08D
S113012080930B0180930A010EC080910A018150D3
S113013080930A0189E080930B0105C080910B0133
S1130140815080930B018F910F900FBE0F901F90E1
S113015018950E94530060910A0180910B010E943E
S1130160B8008FE19EE40197F1F700C00000F3CFDF
S1130170E82FF0E0E050FF4F808180688BB98FE179
S11301809EE40197F1F700C00000E62FF0E0E05094
S10F0190FF4F80818BB90895F894FFCFD5
S10D019C404F24060B121047000226
S9030000FC
