S00A000050342E7372656396
S11300000C9434000C9451000C9451000C946C002A
S11300100C94A3000C9451000C9451000C945100C6
S11300200C9451000C9451000C9451000C94510008
S11300300C9451000C9451000C9451000C945100F8
S11300400C9451000C9451000C9451000C945100E8
S11300500C9451000C9451000C9451000C945100D8
S11300600C9451000C94510011241FBECFEFD8E022
S1130070DEBFCDBF11E0A0E0B1E0E4EDF1E002C0ED
S113008005900D92AA30B107D9F721E0AAE0B1E0BA
S113009001C01D92AC30B207E1F70E94CB000C9472
S11300A0E8000C9400008AB18FEF8AB984B184B956
S11300B085B1836085B9E8E6F0E080818360808360
S11300C0EBE6F0E0808181608083ECE6F0E0808103
S11300D082608083789408951F920F920FB60F92D6
S11300E011242F938F939F9380910B018F5F8093A3
S11300F00B0180910B018A30B1F420910B018DEC3E
S1130100289F812D1124869586958695880F982F92
S1130110990F990F890F281B20930B0180910A01D5
S11301208F5F80930A0180910A018A3021F4109232
S11301300B0110920A019F918F912F910F900FBE86
S11301400F901F9018951F920F920FB60F921124C3
S11301508F9380910B01811113C080910A01811149
S113016006C089E080930B0180930A010EC0809140
S11301700A01815080930A0189E080930B0105C034
S113018080910B01815080930B018F910F900FBED2
S11301900F901F9018950E94530060910A0180915E
S11301A00B010E94D400F9CFE82FF0E0E050FF4F9C
S11301B0808180688BB98FE19EE40197F1F700C0DC
S11301C00000E62FF0E0E050FF4F80818BB90895E6
S10701D0F894FFCFCD
S10D01D4407924301912027800105B
S9030000FC
